{"abi":[{"type":"function","name":"increment","inputs":[],"outputs":[],"stateMutability":"nonpayable"},{"type":"function","name":"number","inputs":[],"outputs":[{"name":"","type":"uint256","internalType":"uint256"}],"stateMutability":"view"},{"type":"function","name":"number0","inputs":[],"outputs":[{"name":"","type":"uint256","internalType":"uint256"}],"stateMutability":"view"},{"type":"function","name":"setNumber","inputs":[{"name":"newNumber","type":"uint256","internalType":"uint256"}],"outputs":[],"stateMutability":"nonpayable"}],"bytecode":{"object":"0x6080604052348015600f57600080fd5b506101098061001f6000396000f3fe6080604052348015600f57600080fd5b506004361060465760003560e01c80630cff877f14604b5780633fb5c1cb1460655780638381f58a146077578063d09de08a14607f575b600080fd5b605360015481565b60405190815260200160405180910390f35b607560703660046095565b600055565b005b605360005481565b6075600080549080608e8360ad565b9190505550565b60006020828403121560a657600080fd5b5035919050565b60006001820160cc57634e487b7160e01b600052601160045260246000fd5b506001019056fea26469706673582212208f23b3e806c76d02c52c1bef5978763f210fbfeb17c80c8412c30b694298a65f64736f6c63430008190033","linkReferences":{}},"methodIdentifiers":{"increment()":"d09de08a","number()":"8381f58a","number0()":"0cff877f","setNumber(uint256)":"3fb5c1cb"},"id":33}