{"abi":[{"type":"constructor","inputs":[],"stateMutability":"nonpayable"},{"type":"function","name":"acceptOwnership","inputs":[],"outputs":[],"stateMutability":"nonpayable"},{"type":"function","name":"character","inputs":[],"outputs":[{"name":"","type":"string","internalType":"string"}],"stateMutability":"view"},{"type":"function","name":"handleOracleFulfillment","inputs":[{"name":"requestId","type":"bytes32","internalType":"bytes32"},{"name":"response","type":"bytes","internalType":"bytes"},{"name":"err","type":"bytes","internalType":"bytes"}],"outputs":[],"stateMutability":"nonpayable"},{"type":"function","name":"owner","inputs":[],"outputs":[{"name":"","type":"address","internalType":"address"}],"stateMutability":"view"},{"type":"function","name":"s_lastError","inputs":[],"outputs":[{"name":"","type":"bytes","internalType":"bytes"}],"stateMutability":"view"},{"type":"function","name":"s_lastRequestId","inputs":[],"outputs":[{"name":"","type":"bytes32","internalType":"bytes32"}],"stateMutability":"view"},{"type":"function","name":"s_lastResponse","inputs":[],"outputs":[{"name":"","type":"bytes","internalType":"bytes"}],"stateMutability":"view"},{"type":"function","name":"sendRequest","inputs":[{"name":"subscriptionId","type":"uint64","internalType":"uint64"},{"name":"args","type":"string[]","internalType":"string[]"}],"outputs":[{"name":"requestId","type":"bytes32","internalType":"bytes32"}],"stateMutability":"nonpayable"},{"type":"function","name":"transferOwnership","inputs":[{"name":"to","type":"address","internalType":"address"}],"outputs":[],"stateMutability":"nonpayable"},{"type":"event","name":"OwnershipTransferRequested","inputs":[{"name":"from","type":"address","indexed":true,"internalType":"address"},{"name":"to","type":"address","indexed":true,"internalType":"address"}],"anonymous":false},{"type":"event","name":"OwnershipTransferred","inputs":[{"name":"from","type":"address","indexed":true,"internalType":"address"},{"name":"to","type":"address","indexed":true,"internalType":"address"}],"anonymous":false},{"type":"event","name":"RequestFulfilled","inputs":[{"name":"id","type":"bytes32","indexed":true,"internalType":"bytes32"}],"anonymous":false},{"type":"event","name":"RequestSent","inputs":[{"name":"id","type":"bytes32","indexed":true,"internalType":"bytes32"}],"anonymous":false},{"type":"event","name":"Response","inputs":[{"name":"requestId","type":"bytes32","indexed":true,"internalType":"bytes32"},{"name":"character","type":"string","indexed":false,"internalType":"string"},{"name":"response","type":"bytes","indexed":false,"internalType":"bytes"},{"name":"err","type":"bytes","indexed":false,"internalType":"bytes"}],"anonymous":false},{"type":"error","name":"EmptyArgs","inputs":[]},{"type":"error","name":"EmptySource","inputs":[]},{"type":"error","name":"NoInlineSecrets","inputs":[]},{"type":"error","name":"OnlyRouterCanFulfill","inputs":[]},{"type":"error","name":"UnexpectedRequestID","inputs":[{"name":"requestId","type":"bytes32","internalType":"bytes32"}]}],"bytecode":{"object":"0x600580546001600160a01b03191673b83e47c2bc239b3bf370bc41e1459a34b41238d01790556101e060405261011f60a08181529061193c60c0396006906100479082610272565b506007805463ffffffff1916620493e01790557f66756e2d657468657265756d2d7365706f6c69612d310000000000000000000060085534801561008a57600080fd5b506005546001600160a01b031660805233806000816100f05760405162461bcd60e51b815260206004820152601860248201527f43616e6e6f7420736574206f776e657220746f207a65726f000000000000000060448201526064015b60405180910390fd5b600080546001600160a01b0319166001600160a01b03848116919091179091558116156101205761012081610128565b505050610331565b336001600160a01b038216036101805760405162461bcd60e51b815260206004820152601760248201527f43616e6e6f74207472616e7366657220746f2073656c6600000000000000000060448201526064016100e7565b600180546001600160a01b0319166001600160a01b0383811691821790925560008054604051929316917fed8889f560326eb138920d842192f0eb3dd22b4f139c87a2c57538e05bae12789190a350565b634e487b7160e01b600052604160045260246000fd5b600181811c908216806101fb57607f821691505b60208210810361021b57634e487b7160e01b600052602260045260246000fd5b50919050565b601f82111561026d576000816000526020600020601f850160051c8101602086101561024a5750805b601f850160051c820191505b8181101561026957828155600101610256565b5050505b505050565b81516001600160401b0381111561028b5761028b6101d1565b61029f8161029984546101e7565b84610221565b602080601f8311600181146102d457600084156102bc5750858301515b600019600386901b1c1916600185901b178555610269565b600085815260208120601f198616915b82811015610303578886015182559484019460019091019084016102e4565b50858210156103215787850151600019600388901b60f8161c191681555b5050505050600190811b01905550565b6080516115e961035360003960008181610146015261084701526115e96000f3fe608060405234801561001057600080fd5b50600436106100935760003560e01c80634d2e03a0116100665780634d2e03a0146100f457806379ba5097146100fc5780638da5cb5b14610104578063b1e217491461011f578063f2fde38b1461012857600080fd5b80630ca76175146100985780633944ea3a146100ad57806348a7d26d146100cb5780634b0795a8146100ec575b600080fd5b6100ab6100a6366004610fa2565b61013b565b005b6100b56101bf565b6040516100c29190611054565b60405180910390f35b6100de6100d9366004611067565b61024d565b6040519081526020016100c2565b6100b561037d565b6100b561038a565b6100ab610397565b6000546040516001600160a01b0390911681526020016100c2565b6100de60025481565b6100ab6101363660046110f5565b610446565b336001600160a01b037f000000000000000000000000000000000000000000000000000000000000000016146101845760405163c6829f8360e01b815260040160405180910390fd5b61018f83838361045a565b60405183907f85e1543bf2f84fe80c6badbce3648c8539ad1df4d2b3d822938ca0538be727e690600090a2505050565b600380546101cc9061111e565b80601f01602080910402602001604051908101604052809291908181526020018280546101f89061111e565b80156102455780601f1061021a57610100808354040283529160200191610245565b820191906000526020600020905b81548152906001019060200180831161022857829003601f168201915b505050505081565b60006102576104ea565b6102986040805160e0810190915280600081526020016000815260200160008152602001606081526020016060815260200160608152602001606081525090565b610335600680546102a89061111e565b80601f01602080910402602001604051908101604052809291908181526020018280546102d49061111e565b80156103215780601f106102f657610100808354040283529160200191610321565b820191906000526020600020905b81548152906001019060200180831161030457829003601f168201915b50505050508261053f90919063ffffffff16565b821561034f5761034f6103488486611158565b8290610550565b61036f61035b8261057a565b600754600854889163ffffffff1690610842565b600281905595945050505050565b600480546101cc9061111e565b600980546101cc9061111e565b6001546001600160a01b031633146103ef5760405162461bcd60e51b815260206004820152601660248201527526bab9ba10313290383937b837b9b2b21037bbb732b960511b60448201526064015b60405180910390fd5b60008054336001600160a01b0319808316821784556001805490911690556040516001600160a01b0390921692909183917f8be0079c531659141344cd1fd0a4f28419497f9722a3daafe3b4186f6b6457e091a350565b61044e6104ea565b61045781610914565b50565b826002541461047f5760405163d068bf5b60e01b8152600481018490526024016103e6565b600361048b8382611241565b5060096104988382611241565b5060046104a58282611241565b50827f160ed0aaffbef6885155188b91459cb5a97d5daadccf7561d8c46deea6641b506009600360046040516104dd9392919061137d565b60405180910390a2505050565b6000546001600160a01b0316331461053d5760405162461bcd60e51b815260206004820152601660248201527527b7363c9031b0b63630b1363290313c9037bbb732b960511b60448201526064016103e6565b565b61054c82600080846109bd565b5050565b80516000036105725760405163fe936cb760e01b815260040160405180910390fd5b60a090910152565b60606000610589610100610a3b565b90506105c26040518060400160405280600c81526020016b31b7b232a637b1b0ba34b7b760a11b81525082610a5c90919063ffffffff16565b82516105e09060028111156105d9576105d96113c0565b8290610a7a565b6040805180820190915260088152676c616e677561676560c01b602082015261060a908290610a5c565b60408301516106219080156105d9576105d96113c0565b604080518082019091526006815265736f7572636560d01b6020820152610649908290610a5c565b6060830151610659908290610a5c565b60a083015151156106e5576040805180820190915260048152636172677360e01b602082015261068a908290610a5c565b61069381610ab3565b60005b8360a00151518110156106db576106d38460a0015182815181106106bc576106bc6113d6565b602002602001015183610a5c90919063ffffffff16565b600101610696565b506106e581610ad7565b608083015151156107a957600083602001516002811115610708576107086113c0565b036107265760405163a80d31f760e01b815260040160405180910390fd5b60408051808201909152600f81526e39b2b1b932ba39a637b1b0ba34b7b760891b6020820152610757908290610a5c565b610770836020015160028111156105d9576105d96113c0565b6040805180820190915260078152667365637265747360c81b6020820152610799908290610a5c565b60808301516107a9908290610af5565b60c0830151511561083a5760408051808201909152600981526862797465734172677360b81b60208201526107df908290610a5c565b6107e881610ab3565b60005b8360c0015151811015610830576108288460c001518281518110610811576108116113d6565b602002602001015183610af590919063ffffffff16565b6001016107eb565b5061083a81610ad7565b515192915050565b6000807f00000000000000000000000000000000000000000000000000000000000000006001600160a01b031663461d27628688600188886040518663ffffffff1660e01b815260040161089a9594939291906113ec565b6020604051808303816000875af11580156108b9573d6000803e3d6000fd5b505050506040513d601f19601f820116820180604052508101906108dd9190611435565b60405190915081907f1131472297a800fee664d1d89cfa8f7676ff07189ecc53f80bbb5f4969099db890600090a295945050505050565b336001600160a01b0382160361096c5760405162461bcd60e51b815260206004820152601760248201527f43616e6e6f74207472616e7366657220746f2073656c6600000000000000000060448201526064016103e6565b600180546001600160a01b0319166001600160a01b0383811691821790925560008054604051929316917fed8889f560326eb138920d842192f0eb3dd22b4f139c87a2c57538e05bae12789190a350565b80516000036109df576040516322ce3edd60e01b815260040160405180910390fd5b838360028111156109f2576109f26113c0565b90816002811115610a0557610a056113c0565b90525060408401828015610a1b57610a1b6113c0565b90818015610a2b57610a2b6113c0565b9052506060909301929092525050565b610a43610eb0565b8051610a4f9083610b02565b5060006020820152919050565b610a698260038351610b7c565b8151610a759082610c9b565b505050565b8151610a879060c2610cc3565b5061054c8282604051602001610a9f91815260200190565b604051602081830303815290604052610af5565b610abe816004610d2c565b600181602001818151610ad19190611464565b90525050565b610ae2816007610d2c565b600181602001818151610ad19190611477565b610a698260028351610b7c565b604080518082019091526060815260006020820152610b2260208361148a565b15610b4a57610b3260208361148a565b610b3d906020611477565b610b479083611464565b91505b602080840183905260405180855260008152908184010181811015610b6e57600080fd5b604052508290505b92915050565b6017816001600160401b031611610ba8578251610ba29060e0600585901b168317610cc3565b50505050565b60ff816001600160401b031611610be8578251610bd0906018611fe0600586901b1617610cc3565b508251610ba2906001600160401b0383166001610d43565b61ffff816001600160401b031611610c29578251610c11906019611fe0600586901b1617610cc3565b508251610ba2906001600160401b0383166002610d43565b63ffffffff816001600160401b031611610c6c578251610c5490601a611fe0600586901b1617610cc3565b508251610ba2906001600160401b0383166004610d43565b8251610c8390601b611fe0600586901b1617610cc3565b508251610ba2906001600160401b0383166008610d43565b604080518082019091526060815260006020820152610cbc83838451610dc8565b9392505050565b6040805180820190915260608152600060208201528251516000610ce8826001611464565b905084602001518210610d0957610d0985610d048360026114ac565b610e99565b8451602083820101858153508051821115610d22578181525b5093949350505050565b8151610a7590601f611fe0600585901b1617610cc3565b6040805180820190915260608152600060208201528351516000610d678285611464565b90508560200151811115610d8457610d8486610d048360026114ac565b60006001610d94866101006115a7565b610d9e9190611477565b90508651828101878319825116178152508051831115610dbc578281525b50959695505050505050565b6040805180820190915260608152600060208201528251821115610deb57600080fd5b8351516000610dfa8483611464565b90508560200151811115610e1757610e1786610d048360026114ac565b855180518382016020019160009180851115610e31578482525b505050602086015b60208610610e715780518252610e50602083611464565b9150610e5d602082611464565b9050610e6a602087611477565b9550610e39565b51815160001960208890036101000a0190811690199190911617905250849150509392505050565b8151610ea58383610b02565b50610ba28382610c9b565b6040518060400160405280610ed8604051806040016040528060608152602001600081525090565b8152602001600081525090565b634e487b7160e01b600052604160045260246000fd5b604051601f8201601f191681016001600160401b0381118282101715610f2357610f23610ee5565b604052919050565b60006001600160401b03831115610f4457610f44610ee5565b610f57601f8401601f1916602001610efb565b9050828152838383011115610f6b57600080fd5b828260208301376000602084830101529392505050565b600082601f830112610f9357600080fd5b610cbc83833560208501610f2b565b600080600060608486031215610fb757600080fd5b8335925060208401356001600160401b0380821115610fd557600080fd5b610fe187838801610f82565b93506040860135915080821115610ff757600080fd5b5061100486828701610f82565b9150509250925092565b6000815180845260005b8181101561103457602081850181015186830182015201611018565b506000602082860101526020601f19601f83011685010191505092915050565b602081526000610cbc602083018461100e565b60008060006040848603121561107c57600080fd5b83356001600160401b03808216821461109457600080fd5b909350602085013590808211156110aa57600080fd5b818601915086601f8301126110be57600080fd5b8135818111156110cd57600080fd5b8760208260051b85010111156110e257600080fd5b6020830194508093505050509250925092565b60006020828403121561110757600080fd5b81356001600160a01b0381168114610cbc57600080fd5b600181811c9082168061113257607f821691505b60208210810361115257634e487b7160e01b600052602260045260246000fd5b50919050565b60006001600160401b038084111561117257611172610ee5565b8360051b602061118460208301610efb565b8681529185019160208101903684111561119d57600080fd5b865b848110156111e5578035868111156111b75760008081fd5b880136601f8201126111c95760008081fd5b6111d7368235878401610f2b565b84525091830191830161119f565b50979650505050505050565b601f821115610a75576000816000526020600020601f850160051c8101602086101561121a5750805b601f850160051c820191505b8181101561123957828155600101611226565b505050505050565b81516001600160401b0381111561125a5761125a610ee5565b61126e81611268845461111e565b846111f1565b602080601f8311600181146112a3576000841561128b5750858301515b600019600386901b1c1916600185901b178555611239565b600085815260208120601f198616915b828110156112d2578886015182559484019460019091019084016112b3565b50858210156112f05787850151600019600388901b60f8161c191681555b5050505050600190811b01905550565b6000815461130d8161111e565b80855260206001838116801561132a576001811461134457611372565b60ff1985168884015283151560051b880183019550611372565b866000528260002060005b8581101561136a5781548a820186015290830190840161134f565b890184019650505b505050505092915050565b6060815260006113906060830186611300565b82810360208401526113a28186611300565b905082810360408401526113b68185611300565b9695505050505050565b634e487b7160e01b600052602160045260246000fd5b634e487b7160e01b600052603260045260246000fd5b6001600160401b038616815260a06020820152600061140e60a083018761100e565b61ffff9590951660408301525063ffffffff92909216606083015260809091015292915050565b60006020828403121561144757600080fd5b5051919050565b634e487b7160e01b600052601160045260246000fd5b80820180821115610b7657610b7661144e565b81810381811115610b7657610b7661144e565b6000826114a757634e487b7160e01b600052601260045260246000fd5b500690565b8082028115828204841417610b7657610b7661144e565b600181815b808511156114fe5781600019048211156114e4576114e461144e565b808516156114f157918102915b93841c93908002906114c8565b509250929050565b60008261151557506001610b76565b8161152257506000610b76565b816001811461153857600281146115425761155e565b6001915050610b76565b60ff8411156115535761155361144e565b50506001821b610b76565b5060208310610133831016604e8410600b8410161715611581575081810a610b76565b61158b83836114c3565b806000190482111561159f5761159f61144e565b029392505050565b6000610cbc838361150656fea2646970667358221220053daa42a314873c0411acba64d569ca5e20cdc47d75400970d8353f8e1c5d8364736f6c63430008190033636f6e7374206970667348617368203d20617267735b305d3b636f6e737420617069526573706f6e7365203d2061776169742046756e6374696f6e732e6d616b654874747052657175657374287b75726c3a206068747470733a2f2f62652d616e616c79746963732d6170692d676c35626269333263712d74732e612e72756e2e6170702f6170692f6964656e746966792f247b69706673486173687d607d293b69662028617069526573706f6e73652e6572726f7229207b7468726f77204572726f72282752657175657374206661696c656427293b7d636f6e7374207b2064617461207d203d20617069526573706f6e73653b72657475726e2046756e6374696f6e732e656e636f6465537472696e6728646174612e6c6162656c293b","linkReferences":{}},"methodIdentifiers":{"acceptOwnership()":"79ba5097","character()":"4d2e03a0","handleOracleFulfillment(bytes32,bytes,bytes)":"0ca76175","owner()":"8da5cb5b","s_lastError()":"4b0795a8","s_lastRequestId()":"b1e21749","s_lastResponse()":"3944ea3a","sendRequest(uint64,string[])":"48a7d26d","transferOwnership(address)":"f2fde38b"},"id":34}