{"abi":[{"type":"constructor","inputs":[{"name":"_oracle","type":"address","internalType":"address"},{"name":"_jobId","type":"bytes32","internalType":"bytes32"},{"name":"_fee","type":"uint256","internalType":"uint256"},{"name":"_link","type":"address","internalType":"address"}],"stateMutability":"nonpayable"},{"type":"function","name":"acceptOwnership","inputs":[],"outputs":[],"stateMutability":"nonpayable"},{"type":"function","name":"fulfill","inputs":[{"name":"_requestId","type":"bytes32","internalType":"bytes32"},{"name":"_result","type":"uint256","internalType":"uint256"}],"outputs":[],"stateMutability":"nonpayable"},{"type":"function","name":"owner","inputs":[],"outputs":[{"name":"","type":"address","internalType":"address"}],"stateMutability":"view"},{"type":"function","name":"requestData","inputs":[{"name":"_url","type":"string","internalType":"string"}],"outputs":[{"name":"requestId","type":"bytes32","internalType":"bytes32"}],"stateMutability":"nonpayable"},{"type":"function","name":"result","inputs":[],"outputs":[{"name":"","type":"uint256","internalType":"uint256"}],"stateMutability":"view"},{"type":"function","name":"transferOwnership","inputs":[{"name":"to","type":"address","internalType":"address"}],"outputs":[],"stateMutability":"nonpayable"},{"type":"function","name":"withdrawLink","inputs":[],"outputs":[],"stateMutability":"nonpayable"},{"type":"event","name":"ChainlinkCancelled","inputs":[{"name":"id","type":"bytes32","indexed":true,"internalType":"bytes32"}],"anonymous":false},{"type":"event","name":"ChainlinkFulfilled","inputs":[{"name":"id","type":"bytes32","indexed":true,"internalType":"bytes32"}],"anonymous":false},{"type":"event","name":"ChainlinkRequested","inputs":[{"name":"id","type":"bytes32","indexed":true,"internalType":"bytes32"}],"anonymous":false},{"type":"event","name":"OwnershipTransferRequested","inputs":[{"name":"from","type":"address","indexed":true,"internalType":"address"},{"name":"to","type":"address","indexed":true,"internalType":"address"}],"anonymous":false},{"type":"event","name":"OwnershipTransferred","inputs":[{"name":"from","type":"address","indexed":true,"internalType":"address"},{"name":"to","type":"address","indexed":true,"internalType":"address"}],"anonymous":false}],"bytecode":{"object":"0x6080604052600160045534801561001557600080fd5b50604051611235380380611235833981016040819052610034916101df565b338060008161008a5760405162461bcd60e51b815260206004820152601860248201527f43616e6e6f7420736574206f776e657220746f207a65726f000000000000000060448201526064015b60405180910390fd5b600680546001600160a01b0319166001600160a01b03848116919091179091558116156100ba576100ba816100f7565b5050506100cc816101a160201b60201c565b600380546001600160a01b0319166001600160a01b03861617905550600a91909155600b5550610225565b336001600160a01b0382160361014f5760405162461bcd60e51b815260206004820152601760248201527f43616e6e6f74207472616e7366657220746f2073656c660000000000000000006044820152606401610081565b600780546001600160a01b0319166001600160a01b03838116918217909255600654604051919216907fed8889f560326eb138920d842192f0eb3dd22b4f139c87a2c57538e05bae127890600090a350565b600280546001600160a01b0319166001600160a01b0392909216919091179055565b80516001600160a01b03811681146101da57600080fd5b919050565b600080600080608085870312156101f557600080fd5b6101fe856101c3565b9350602085015192506040850151915061021a606086016101c3565b905092959194509250565b611001806102346000396000f3fe608060405234801561001057600080fd5b506004361061007d5760003560e01c806379ba50971161005b57806379ba5097146100c65780638da5cb5b146100ce5780638dc654a2146100e9578063f2fde38b146100f157600080fd5b80632215ec2c146100825780634357855e146100a857806365372147146100bd575b600080fd5b610095610090366004610c5a565b610104565b6040519081526020015b60405180910390f35b6100bb6100b6366004610d0b565b6101a6565b005b61009560085481565b6100bb61026e565b6006546040516001600160a01b03909116815260200161009f565b6100bb61031c565b6100bb6100ff366004610d2d565b610460565b60008061011b600a5430634357855e60e01b610471565b60408051808201909152600381526219d95d60ea1b602082015290915061014490829085610496565b610193604051806040016040528060048152602001630e0c2e8d60e31b815250604051806040016040528060068152602001651c995cdd5b1d60d21b815250836104969092919063ffffffff16565b61019f81600b546104b9565b9392505050565b60008281526005602052604090205482906001600160a01b031633146102245760405162461bcd60e51b815260206004820152602860248201527f536f75726365206d75737420626520746865206f7261636c65206f6620746865604482015267081c995c5d595cdd60c21b60648201526084015b60405180910390fd5b60008181526005602052604080822080546001600160a01b03191690555182917f7cc135e0cebb02c3480ae5d74d377283180a2601f8f644edf7987b009316c63a91a25060085550565b6007546001600160a01b031633146102c15760405162461bcd60e51b815260206004820152601660248201527526bab9ba10313290383937b837b9b2b21037bbb732b960511b604482015260640161021b565b600680546001600160a01b0319808216339081179093556007805490911690556040516001600160a01b03909116919082907f8be0079c531659141344cd1fd0a4f28419497f9722a3daafe3b4186f6b6457e090600090a350565b6103246104dc565b60006103386002546001600160a01b031690565b6040516370a0823160e01b81523060048201529091506001600160a01b0382169063a9059cbb90339083906370a0823190602401602060405180830381865afa158015610389573d6000803e3d6000fd5b505050506040513d601f19601f820116820180604052508101906103ad9190610d56565b6040516001600160e01b031960e085901b1681526001600160a01b03909216600483015260248201526044016020604051808303816000875af11580156103f8573d6000803e3d6000fd5b505050506040513d601f19601f8201168201806040525081019061041c9190610d6f565b61045d5760405162461bcd60e51b81526020600482015260126024820152712ab730b13632903a37903a3930b739b332b960711b604482015260640161021b565b50565b6104686104dc565b61045d81610531565b610479610c09565b610481610c09565b61048d818686866105db565b95945050505050565b60808301516104a59083610621565b60808301516104b49082610621565b505050565b6003546000906104d3906001600160a01b03168484610638565b90505b92915050565b6006546001600160a01b0316331461052f5760405162461bcd60e51b815260206004820152601660248201527527b7363c9031b0b63630b1363290313c9037bbb732b960511b604482015260640161021b565b565b336001600160a01b038216036105895760405162461bcd60e51b815260206004820152601760248201527f43616e6e6f74207472616e7366657220746f2073656c66000000000000000000604482015260640161021b565b600780546001600160a01b0319166001600160a01b03838116918217909255600654604051919216907fed8889f560326eb138920d842192f0eb3dd22b4f139c87a2c57538e05bae127890600090a350565b6105e3610c09565b6105f385608001516101006106cb565b50508284526001600160a01b03821660208501526001600160e01b031981166040850152835b949350505050565b61062e8260038351610730565b6104b48282610845565b600454600090610649816001610da7565b600455835160408086015160808701515191516000936320214ca360e11b936106819386938493923092918a91600191602401610e00565b60408051601f198184030181529190526020810180516001600160e01b03166001600160e01b03199093169290921790915290506106c18683868461086c565b9695505050505050565b6040805180820190915260608152600060208201526106eb602083610e68565b15610713576106fb602083610e68565b610706906020610e8a565b6107109083610da7565b91505b506020828101829052604080518085526000815290920101905290565b60178167ffffffffffffffff161161075b576107558360e0600585901b1683176109ca565b50505050565b60ff8167ffffffffffffffff161161079957610782836018611fe0600586901b16176109ca565b506107558367ffffffffffffffff831660016109ef565b61ffff8167ffffffffffffffff16116107d8576107c1836019611fe0600586901b16176109ca565b506107558367ffffffffffffffff831660026109ef565b63ffffffff8167ffffffffffffffff16116108195761080283601a611fe0600586901b16176109ca565b506107558367ffffffffffffffff831660046109ef565b61082e83601b611fe0600586901b16176109ca565b506107558367ffffffffffffffff831660086109ef565b6040805180820190915260608152600060208201526104d383846000015151848551610a15565b6040516bffffffffffffffffffffffff193060601b1660208201526034810184905260009060540160408051808303601f1901815282825280516020918201206000818152600590925291812080546001600160a01b0319166001600160a01b038a1617905590925082917fb5e6e01e79f91267dc17b4e6314d5d4d03593d2ceee0fbb452b750bd70ea5af99190a2600254604051630200057560e51b81526001600160a01b0390911690634000aea09061092f90889087908790600401610e9d565b6020604051808303816000875af115801561094e573d6000803e3d6000fd5b505050506040513d601f19601f820116820180604052508101906109729190610d6f565b6106195760405162461bcd60e51b815260206004820152602360248201527f756e61626c6520746f207472616e73666572416e6443616c6c20746f206f7261604482015262636c6560e81b606482015260840161021b565b6040805180820190915260608152600060208201526104d38384600001515184610aff565b604080518082019091526060815260006020820152610619848560000151518585610b5a565b6040805180820190915260608152600060208201528251821115610a3857600080fd5b6020850151610a478386610da7565b1115610a7a57610a7a85610a6a87602001518786610a659190610da7565b610bdb565b610a75906002610ec4565b610bf2565b600080865180518760208301019350808887011115610a995787860182525b505050602084015b60208410610ad95780518252610ab8602083610da7565b9150610ac5602082610da7565b9050610ad2602085610e8a565b9350610aa1565b51815160001960208690036101000a019081169019919091161790525083949350505050565b60408051808201909152606081526000602082015283602001518310610b3457610b348485602001516002610a759190610ec4565b8351805160208583010184815350808503610b50576001810182525b5093949350505050565b6040805180820190915260608152600060208201526020850151610b7e8584610da7565b1115610b9257610b9285610a6a8685610da7565b60006001610ba284610100610fbf565b610bac9190610e8a565b9050855183868201018583198251161781525080518487011115610bd05783860181525b509495945050505050565b600081831115610bec5750816104d6565b50919050565b8151610bfe83836106cb565b506107558382610845565b6040805160a0810182526000808252602080830182905282840182905260608084018390528451808601909552845283015290608082015290565b634e487b7160e01b600052604160045260246000fd5b600060208284031215610c6c57600080fd5b813567ffffffffffffffff80821115610c8457600080fd5b818401915084601f830112610c9857600080fd5b813581811115610caa57610caa610c44565b604051601f8201601f19908116603f01168101908382118183101715610cd257610cd2610c44565b81604052828152876020848701011115610ceb57600080fd5b826020860160208301376000928101602001929092525095945050505050565b60008060408385031215610d1e57600080fd5b50508035926020909101359150565b600060208284031215610d3f57600080fd5b81356001600160a01b038116811461019f57600080fd5b600060208284031215610d6857600080fd5b5051919050565b600060208284031215610d8157600080fd5b8151801515811461019f57600080fd5b634e487b7160e01b600052601160045260246000fd5b808201808211156104d6576104d6610d91565b6000815180845260005b81811015610de057602081850181015186830182015201610dc4565b506000602082860101526020601f19601f83011685010191505092915050565b6001600160a01b0389811682526020820189905260408201889052861660608201526001600160e01b03198516608082015260a0810184905260c0810183905261010060e08201819052600090610e5983820185610dba565b9b9a5050505050505050505050565b600082610e8557634e487b7160e01b600052601260045260246000fd5b500690565b818103818111156104d6576104d6610d91565b60018060a01b038416815282602082015260606040820152600061048d6060830184610dba565b80820281158282048414176104d6576104d6610d91565b600181815b80851115610f16578160001904821115610efc57610efc610d91565b80851615610f0957918102915b93841c9390800290610ee0565b509250929050565b600082610f2d575060016104d6565b81610f3a575060006104d6565b8160018114610f505760028114610f5a57610f76565b60019150506104d6565b60ff841115610f6b57610f6b610d91565b50506001821b6104d6565b5060208310610133831016604e8410600b8410161715610f99575081810a6104d6565b610fa38383610edb565b8060001904821115610fb757610fb7610d91565b029392505050565b60006104d38383610f1e56fea2646970667358221220b2cf38d8e361c26811b2791d819048fb515f5cc288ccaef3b6e34286f10a652764736f6c63430008190033","linkReferences":{}},"methodIdentifiers":{"acceptOwnership()":"79ba5097","fulfill(bytes32,uint256)":"4357855e","owner()":"8da5cb5b","requestData(string)":"2215ec2c","result()":"65372147","transferOwnership(address)":"f2fde38b","withdrawLink()":"8dc654a2"},"id":34}