{"abi":[{"type":"constructor","inputs":[{"name":"_oracle","type":"address","internalType":"address"},{"name":"_jobId","type":"bytes32","internalType":"bytes32"},{"name":"_fee","type":"uint256","internalType":"uint256"},{"name":"_link","type":"address","internalType":"address"}],"stateMutability":"nonpayable"},{"type":"function","name":"fulfill","inputs":[{"name":"_requestId","type":"bytes32","internalType":"bytes32"},{"name":"_result","type":"uint256","internalType":"uint256"}],"outputs":[],"stateMutability":"nonpayable"},{"type":"function","name":"requestData","inputs":[{"name":"_url","type":"string","internalType":"string"}],"outputs":[{"name":"requestId","type":"bytes32","internalType":"bytes32"}],"stateMutability":"nonpayable"},{"type":"function","name":"result","inputs":[],"outputs":[{"name":"","type":"uint256","internalType":"uint256"}],"stateMutability":"view"},{"type":"event","name":"ChainlinkCancelled","inputs":[{"name":"id","type":"bytes32","indexed":true,"internalType":"bytes32"}],"anonymous":false},{"type":"event","name":"ChainlinkFulfilled","inputs":[{"name":"id","type":"bytes32","indexed":true,"internalType":"bytes32"}],"anonymous":false},{"type":"event","name":"ChainlinkRequested","inputs":[{"name":"id","type":"bytes32","indexed":true,"internalType":"bytes32"}],"anonymous":false}],"bytecode":{"object":"0x60806040526001600455348015601457600080fd5b50604051610d17380380610d178339810160408190526031916093565b600280546001600160a01b0319166001600160a01b03831617905550600780546001600160a01b0319166001600160a01b03949094169390931790925560085560095560d4565b80516001600160a01b0381168114608e57600080fd5b919050565b6000806000806080858703121560a857600080fd5b60af856078565b9350602085015192506040850151915060c9606086016078565b905092959194509250565b610c34806100e36000396000f3fe608060405234801561001057600080fd5b50600436106100415760003560e01c80632215ec2c146100465780634357855e1461006b5780636537214714610080575b600080fd5b6100596100543660046108cf565b610089565b60405190815260200160405180910390f35b61007e610079366004610980565b61013a565b005b61005960065481565b6000806100a060085430634357855e60e01b610202565b60408051808201909152600381526219d95d60ea1b60208201529091506100c990829085610227565b610118604051806040016040528060048152602001630e0c2e8d60e31b815250604051806040016040528060068152602001651c995cdd5b1d60d21b815250836102279092919063ffffffff16565b600754600954610133916001600160a01b031690839061024a565b9392505050565b60008281526005602052604090205482906001600160a01b031633146101b85760405162461bcd60e51b815260206004820152602860248201527f536f75726365206d75737420626520746865206f7261636c65206f6620746865604482015267081c995c5d595cdd60c21b60648201526084015b60405180910390fd5b60008181526005602052604080822080546001600160a01b03191690555182917f7cc135e0cebb02c3480ae5d74d377283180a2601f8f644edf7987b009316c63a91a25060065550565b61020a61087e565b61021261087e565b61021e818686866102dd565b95945050505050565b60808301516102369083610323565b60808301516102459082610323565b505050565b60045460009061025b8160016109b8565b600455835160408086015160808701515191516000936320214ca360e11b936102939386938493923092918a91600191602401610a11565b60408051601f198184030181529190526020810180516001600160e01b03166001600160e01b03199093169290921790915290506102d38683868461033a565b9695505050505050565b6102e561087e565b6102f58560800151610100610498565b50508284526001600160a01b03821660208501526001600160e01b031981166040850152835b949350505050565b6103308260038351610503565b6102458282610618565b6040516bffffffffffffffffffffffff193060601b1660208201526034810184905260009060540160408051808303601f1901815282825280516020918201206000818152600590925291812080546001600160a01b0319166001600160a01b038a1617905590925082917fb5e6e01e79f91267dc17b4e6314d5d4d03593d2ceee0fbb452b750bd70ea5af99190a2600254604051630200057560e51b81526001600160a01b0390911690634000aea0906103fd90889087908790600401610a79565b6020604051808303816000875af115801561041c573d6000803e3d6000fd5b505050506040513d601f19601f820116820180604052508101906104409190610aa0565b61031b5760405162461bcd60e51b815260206004820152602360248201527f756e61626c6520746f207472616e73666572416e6443616c6c20746f206f7261604482015262636c6560e81b60648201526084016101af565b6040805180820190915260608152600060208201526104b8602083610ac2565b156104e0576104c8602083610ac2565b6104d3906020610ae4565b6104dd90836109b8565b91505b506020808301829052604080518085526000815283019091019052815b92915050565b60178167ffffffffffffffff161161052e576105288360e0600585901b16831761063f565b50505050565b60ff8167ffffffffffffffff161161056c57610555836018611fe0600586901b161761063f565b506105288367ffffffffffffffff83166001610664565b61ffff8167ffffffffffffffff16116105ab57610594836019611fe0600586901b161761063f565b506105288367ffffffffffffffff83166002610664565b63ffffffff8167ffffffffffffffff16116105ec576105d583601a611fe0600586901b161761063f565b506105288367ffffffffffffffff83166004610664565b61060183601b611fe0600586901b161761063f565b506105288367ffffffffffffffff83166008610664565b6040805180820190915260608152600060208201526101338384600001515184855161068a565b6040805180820190915260608152600060208201526101338384600001515184610774565b60408051808201909152606081526000602082015261031b8485600001515185856107cf565b60408051808201909152606081526000602082015282518211156106ad57600080fd5b60208501516106bc83866109b8565b11156106ef576106ef856106df876020015187866106da91906109b8565b610850565b6106ea906002610af7565b610867565b60008086518051876020830101935080888701111561070e5787860182525b505050602084015b6020841061074e578051825261072d6020836109b8565b915061073a6020826109b8565b9050610747602085610ae4565b9350610716565b51815160001960208690036101000a019081169019919091161790525083949350505050565b604080518082019091526060815260006020820152836020015183106107a9576107a984856020015160026106ea9190610af7565b83518051602085830101848153508085036107c5576001810182525b5093949350505050565b60408051808201909152606081526000602082015260208501516107f385846109b8565b111561080757610807856106df86856109b8565b6000600161081784610100610bf2565b6108219190610ae4565b90508551838682010185831982511617815250805184870111156108455783860181525b509495945050505050565b6000818311156108615750816104fd565b50919050565b81516108738383610498565b506105288382610618565b6040805160a0810182526000808252602080830182905282840182905260608084018390528451808601909552845283015290608082015290565b634e487b7160e01b600052604160045260246000fd5b6000602082840312156108e157600080fd5b813567ffffffffffffffff808211156108f957600080fd5b818401915084601f83011261090d57600080fd5b81358181111561091f5761091f6108b9565b604051601f8201601f19908116603f01168101908382118183101715610947576109476108b9565b8160405282815287602084870101111561096057600080fd5b826020860160208301376000928101602001929092525095945050505050565b6000806040838503121561099357600080fd5b50508035926020909101359150565b634e487b7160e01b600052601160045260246000fd5b808201808211156104fd576104fd6109a2565b6000815180845260005b818110156109f1576020818501810151868301820152016109d5565b506000602082860101526020601f19601f83011685010191505092915050565b6001600160a01b0389811682526020820189905260408201889052861660608201526001600160e01b03198516608082015260a0810184905260c0810183905261010060e08201819052600090610a6a838201856109cb565b9b9a5050505050505050505050565b60018060a01b038416815282602082015260606040820152600061021e60608301846109cb565b600060208284031215610ab257600080fd5b8151801515811461013357600080fd5b600082610adf57634e487b7160e01b600052601260045260246000fd5b500690565b818103818111156104fd576104fd6109a2565b80820281158282048414176104fd576104fd6109a2565b600181815b80851115610b49578160001904821115610b2f57610b2f6109a2565b80851615610b3c57918102915b93841c9390800290610b13565b509250929050565b600082610b60575060016104fd565b81610b6d575060006104fd565b8160018114610b835760028114610b8d57610ba9565b60019150506104fd565b60ff841115610b9e57610b9e6109a2565b50506001821b6104fd565b5060208310610133831016604e8410600b8410161715610bcc575081810a6104fd565b610bd68383610b0e565b8060001904821115610bea57610bea6109a2565b029392505050565b60006101338383610b5156fea264697066735822122084117bfdc795a761d02931e4a2f68397734844c13d79f8b6c55e17b9298a978d64736f6c63430008190033","linkReferences":{}},"methodIdentifiers":{"fulfill(bytes32,uint256)":"4357855e","requestData(string)":"2215ec2c","result()":"65372147"},"id":31}