{"abi":[{"type":"constructor","inputs":[{"name":"_donID","type":"bytes32","internalType":"bytes32"},{"name":"_router","type":"address","internalType":"address"}],"stateMutability":"nonpayable"},{"type":"function","name":"acceptOwnership","inputs":[],"outputs":[],"stateMutability":"nonpayable"},{"type":"function","name":"character","inputs":[],"outputs":[{"name":"","type":"string","internalType":"string"}],"stateMutability":"view"},{"type":"function","name":"donID","inputs":[],"outputs":[{"name":"","type":"bytes32","internalType":"bytes32"}],"stateMutability":"view"},{"type":"function","name":"gasLimit","inputs":[],"outputs":[{"name":"","type":"uint32","internalType":"uint32"}],"stateMutability":"view"},{"type":"function","name":"handleOracleFulfillment","inputs":[{"name":"requestId","type":"bytes32","internalType":"bytes32"},{"name":"response","type":"bytes","internalType":"bytes"},{"name":"err","type":"bytes","internalType":"bytes"}],"outputs":[],"stateMutability":"nonpayable"},{"type":"function","name":"owner","inputs":[],"outputs":[{"name":"","type":"address","internalType":"address"}],"stateMutability":"view"},{"type":"function","name":"router","inputs":[],"outputs":[{"name":"","type":"address","internalType":"address"}],"stateMutability":"view"},{"type":"function","name":"s_lastError","inputs":[],"outputs":[{"name":"","type":"bytes","internalType":"bytes"}],"stateMutability":"view"},{"type":"function","name":"s_lastRequestId","inputs":[],"outputs":[{"name":"","type":"bytes32","internalType":"bytes32"}],"stateMutability":"view"},{"type":"function","name":"s_lastResponse","inputs":[],"outputs":[{"name":"","type":"bytes","internalType":"bytes"}],"stateMutability":"view"},{"type":"function","name":"sendRequest","inputs":[{"name":"subscriptionId","type":"uint64","internalType":"uint64"},{"name":"args","type":"string[]","internalType":"string[]"}],"outputs":[{"name":"requestId","type":"bytes32","internalType":"bytes32"}],"stateMutability":"nonpayable"},{"type":"function","name":"transferOwnership","inputs":[{"name":"to","type":"address","internalType":"address"}],"outputs":[],"stateMutability":"nonpayable"},{"type":"event","name":"OwnershipTransferRequested","inputs":[{"name":"from","type":"address","indexed":true,"internalType":"address"},{"name":"to","type":"address","indexed":true,"internalType":"address"}],"anonymous":false},{"type":"event","name":"OwnershipTransferred","inputs":[{"name":"from","type":"address","indexed":true,"internalType":"address"},{"name":"to","type":"address","indexed":true,"internalType":"address"}],"anonymous":false},{"type":"event","name":"RequestFulfilled","inputs":[{"name":"id","type":"bytes32","indexed":true,"internalType":"bytes32"}],"anonymous":false},{"type":"event","name":"RequestSent","inputs":[{"name":"id","type":"bytes32","indexed":true,"internalType":"bytes32"}],"anonymous":false},{"type":"event","name":"Response","inputs":[{"name":"requestId","type":"bytes32","indexed":true,"internalType":"bytes32"},{"name":"character","type":"string","indexed":false,"internalType":"string"},{"name":"response","type":"bytes","indexed":false,"internalType":"bytes"},{"name":"err","type":"bytes","indexed":false,"internalType":"bytes"}],"anonymous":false},{"type":"error","name":"EmptyArgs","inputs":[]},{"type":"error","name":"EmptySource","inputs":[]},{"type":"error","name":"NoInlineSecrets","inputs":[]},{"type":"error","name":"OnlyRouterCanFulfill","inputs":[]},{"type":"error","name":"UnexpectedRequestID","inputs":[{"name":"requestId","type":"bytes32","internalType":"bytes32"}]}],"bytecode":{"object":"0x61020060405261012b60a0818152906119de60c039600690610021908261026b565b5034801561002e57600080fd5b50604051611b09380380611b0983398101604081905261004d9161032a565b6005546001600160a01b031660805233806000816100b25760405162461bcd60e51b815260206004820152601860248201527f43616e6e6f7420736574206f776e657220746f207a65726f000000000000000060448201526064015b60405180910390fd5b600080546001600160a01b0319166001600160a01b03848116919091179091558116156100e2576100e281610121565b5050600580546001600160a01b039093166001600160a01b031990931692909217909155506007805463ffffffff1916620493e0179055600855610367565b336001600160a01b038216036101795760405162461bcd60e51b815260206004820152601760248201527f43616e6e6f74207472616e7366657220746f2073656c6600000000000000000060448201526064016100a9565b600180546001600160a01b0319166001600160a01b0383811691821790925560008054604051929316917fed8889f560326eb138920d842192f0eb3dd22b4f139c87a2c57538e05bae12789190a350565b634e487b7160e01b600052604160045260246000fd5b600181811c908216806101f457607f821691505b60208210810361021457634e487b7160e01b600052602260045260246000fd5b50919050565b601f821115610266576000816000526020600020601f850160051c810160208610156102435750805b601f850160051c820191505b818110156102625782815560010161024f565b5050505b505050565b81516001600160401b03811115610284576102846101ca565b6102988161029284546101e0565b8461021a565b602080601f8311600181146102cd57600084156102b55750858301515b600019600386901b1c1916600185901b178555610262565b600085815260208120601f198616915b828110156102fc578886015182559484019460019091019084016102dd565b508582101561031a5787850151600019600388901b60f8161c191681555b5050505050600190811b01905550565b6000806040838503121561033d57600080fd5b825160208401519092506001600160a01b038116811461035c57600080fd5b809150509250929050565b608051611655610389600039600081816101b201526108b301526116556000f3fe608060405234801561001057600080fd5b50600436106100b45760003560e01c806379ba50971161007157806379ba5097146101265780638da5cb5b1461012e578063b1e2174914610153578063f2fde38b1461015c578063f68016b71461016f578063f887ea401461019457600080fd5b80630ca76175146100b95780633944ea3a146100ce57806348a7d26d146100ec5780634b0795a81461010d5780634d2e03a0146101155780636e74336b1461011d575b600080fd5b6100cc6100c736600461100e565b6101a7565b005b6100d661022b565b6040516100e391906110c0565b60405180910390f35b6100ff6100fa3660046110d3565b6102b9565b6040519081526020016100e3565b6100d66103e9565b6100d66103f6565b6100ff60085481565b6100cc610403565b6000546001600160a01b03165b6040516001600160a01b0390911681526020016100e3565b6100ff60025481565b6100cc61016a366004611161565b6104b2565b60075461017f9063ffffffff1681565b60405163ffffffff90911681526020016100e3565b60055461013b906001600160a01b031681565b336001600160a01b037f000000000000000000000000000000000000000000000000000000000000000016146101f05760405163c6829f8360e01b815260040160405180910390fd5b6101fb8383836104c6565b60405183907f85e1543bf2f84fe80c6badbce3648c8539ad1df4d2b3d822938ca0538be727e690600090a2505050565b600380546102389061118a565b80601f01602080910402602001604051908101604052809291908181526020018280546102649061118a565b80156102b15780601f10610286576101008083540402835291602001916102b1565b820191906000526020600020905b81548152906001019060200180831161029457829003601f168201915b505050505081565b60006102c3610556565b6103046040805160e0810190915280600081526020016000815260200160008152602001606081526020016060815260200160608152602001606081525090565b6103a1600680546103149061118a565b80601f01602080910402602001604051908101604052809291908181526020018280546103409061118a565b801561038d5780601f106103625761010080835404028352916020019161038d565b820191906000526020600020905b81548152906001019060200180831161037057829003601f168201915b5050505050826105ab90919063ffffffff16565b82156103bb576103bb6103b484866111c4565b82906105bc565b6103db6103c7826105e6565b600754600854889163ffffffff16906108ae565b600281905595945050505050565b600480546102389061118a565b600980546102389061118a565b6001546001600160a01b0316331461045b5760405162461bcd60e51b815260206004820152601660248201527526bab9ba10313290383937b837b9b2b21037bbb732b960511b60448201526064015b60405180910390fd5b60008054336001600160a01b0319808316821784556001805490911690556040516001600160a01b0390921692909183917f8be0079c531659141344cd1fd0a4f28419497f9722a3daafe3b4186f6b6457e091a350565b6104ba610556565b6104c381610980565b50565b82600254146104eb5760405163d068bf5b60e01b815260048101849052602401610452565b60036104f783826112ad565b50600961050483826112ad565b50600461051182826112ad565b50827f160ed0aaffbef6885155188b91459cb5a97d5daadccf7561d8c46deea6641b50600960036004604051610549939291906113e9565b60405180910390a2505050565b6000546001600160a01b031633146105a95760405162461bcd60e51b815260206004820152601660248201527527b7363c9031b0b63630b1363290313c9037bbb732b960511b6044820152606401610452565b565b6105b88260008084610a29565b5050565b80516000036105de5760405163fe936cb760e01b815260040160405180910390fd5b60a090910152565b606060006105f5610100610aa7565b905061062e6040518060400160405280600c81526020016b31b7b232a637b1b0ba34b7b760a11b81525082610ac890919063ffffffff16565b825161064c9060028111156106455761064561142c565b8290610ae6565b6040805180820190915260088152676c616e677561676560c01b6020820152610676908290610ac8565b604083015161068d9080156106455761064561142c565b604080518082019091526006815265736f7572636560d01b60208201526106b5908290610ac8565b60608301516106c5908290610ac8565b60a08301515115610751576040805180820190915260048152636172677360e01b60208201526106f6908290610ac8565b6106ff81610b1f565b60005b8360a00151518110156107475761073f8460a00151828151811061072857610728611442565b602002602001015183610ac890919063ffffffff16565b600101610702565b5061075181610b43565b60808301515115610815576000836020015160028111156107745761077461142c565b036107925760405163a80d31f760e01b815260040160405180910390fd5b60408051808201909152600f81526e39b2b1b932ba39a637b1b0ba34b7b760891b60208201526107c3908290610ac8565b6107dc836020015160028111156106455761064561142c565b6040805180820190915260078152667365637265747360c81b6020820152610805908290610ac8565b6080830151610815908290610b61565b60c083015151156108a65760408051808201909152600981526862797465734172677360b81b602082015261084b908290610ac8565b61085481610b1f565b60005b8360c001515181101561089c576108948460c00151828151811061087d5761087d611442565b602002602001015183610b6190919063ffffffff16565b600101610857565b506108a681610b43565b515192915050565b6000807f00000000000000000000000000000000000000000000000000000000000000006001600160a01b031663461d27628688600188886040518663ffffffff1660e01b8152600401610906959493929190611458565b6020604051808303816000875af1158015610925573d6000803e3d6000fd5b505050506040513d601f19601f8201168201806040525081019061094991906114a1565b60405190915081907f1131472297a800fee664d1d89cfa8f7676ff07189ecc53f80bbb5f4969099db890600090a295945050505050565b336001600160a01b038216036109d85760405162461bcd60e51b815260206004820152601760248201527f43616e6e6f74207472616e7366657220746f2073656c660000000000000000006044820152606401610452565b600180546001600160a01b0319166001600160a01b0383811691821790925560008054604051929316917fed8889f560326eb138920d842192f0eb3dd22b4f139c87a2c57538e05bae12789190a350565b8051600003610a4b576040516322ce3edd60e01b815260040160405180910390fd5b83836002811115610a5e57610a5e61142c565b90816002811115610a7157610a7161142c565b90525060408401828015610a8757610a8761142c565b90818015610a9757610a9761142c565b9052506060909301929092525050565b610aaf610f1c565b8051610abb9083610b6e565b5060006020820152919050565b610ad58260038351610be8565b8151610ae19082610d07565b505050565b8151610af39060c2610d2f565b506105b88282604051602001610b0b91815260200190565b604051602081830303815290604052610b61565b610b2a816004610d98565b600181602001818151610b3d91906114d0565b90525050565b610b4e816007610d98565b600181602001818151610b3d91906114e3565b610ad58260028351610be8565b604080518082019091526060815260006020820152610b8e6020836114f6565b15610bb657610b9e6020836114f6565b610ba99060206114e3565b610bb390836114d0565b91505b602080840183905260405180855260008152908184010181811015610bda57600080fd5b604052508290505b92915050565b6017816001600160401b031611610c14578251610c0e9060e0600585901b168317610d2f565b50505050565b60ff816001600160401b031611610c54578251610c3c906018611fe0600586901b1617610d2f565b508251610c0e906001600160401b0383166001610daf565b61ffff816001600160401b031611610c95578251610c7d906019611fe0600586901b1617610d2f565b508251610c0e906001600160401b0383166002610daf565b63ffffffff816001600160401b031611610cd8578251610cc090601a611fe0600586901b1617610d2f565b508251610c0e906001600160401b0383166004610daf565b8251610cef90601b611fe0600586901b1617610d2f565b508251610c0e906001600160401b0383166008610daf565b604080518082019091526060815260006020820152610d2883838451610e34565b9392505050565b6040805180820190915260608152600060208201528251516000610d548260016114d0565b905084602001518210610d7557610d7585610d70836002611518565b610f05565b8451602083820101858153508051821115610d8e578181525b5093949350505050565b8151610ae190601f611fe0600585901b1617610d2f565b6040805180820190915260608152600060208201528351516000610dd382856114d0565b90508560200151811115610df057610df086610d70836002611518565b60006001610e0086610100611613565b610e0a91906114e3565b90508651828101878319825116178152508051831115610e28578281525b50959695505050505050565b6040805180820190915260608152600060208201528251821115610e5757600080fd5b8351516000610e6684836114d0565b90508560200151811115610e8357610e8386610d70836002611518565b855180518382016020019160009180851115610e9d578482525b505050602086015b60208610610edd5780518252610ebc6020836114d0565b9150610ec96020826114d0565b9050610ed66020876114e3565b9550610ea5565b51815160001960208890036101000a0190811690199190911617905250849150509392505050565b8151610f118383610b6e565b50610c0e8382610d07565b6040518060400160405280610f44604051806040016040528060608152602001600081525090565b8152602001600081525090565b634e487b7160e01b600052604160045260246000fd5b604051601f8201601f191681016001600160401b0381118282101715610f8f57610f8f610f51565b604052919050565b60006001600160401b03831115610fb057610fb0610f51565b610fc3601f8401601f1916602001610f67565b9050828152838383011115610fd757600080fd5b828260208301376000602084830101529392505050565b600082601f830112610fff57600080fd5b610d2883833560208501610f97565b60008060006060848603121561102357600080fd5b8335925060208401356001600160401b038082111561104157600080fd5b61104d87838801610fee565b9350604086013591508082111561106357600080fd5b5061107086828701610fee565b9150509250925092565b6000815180845260005b818110156110a057602081850181015186830182015201611084565b506000602082860101526020601f19601f83011685010191505092915050565b602081526000610d28602083018461107a565b6000806000604084860312156110e857600080fd5b83356001600160401b03808216821461110057600080fd5b9093506020850135908082111561111657600080fd5b818601915086601f83011261112a57600080fd5b81358181111561113957600080fd5b8760208260051b850101111561114e57600080fd5b6020830194508093505050509250925092565b60006020828403121561117357600080fd5b81356001600160a01b0381168114610d2857600080fd5b600181811c9082168061119e57607f821691505b6020821081036111be57634e487b7160e01b600052602260045260246000fd5b50919050565b60006001600160401b03808411156111de576111de610f51565b8360051b60206111f060208301610f67565b8681529185019160208101903684111561120957600080fd5b865b84811015611251578035868111156112235760008081fd5b880136601f8201126112355760008081fd5b611243368235878401610f97565b84525091830191830161120b565b50979650505050505050565b601f821115610ae1576000816000526020600020601f850160051c810160208610156112865750805b601f850160051c820191505b818110156112a557828155600101611292565b505050505050565b81516001600160401b038111156112c6576112c6610f51565b6112da816112d4845461118a565b8461125d565b602080601f83116001811461130f57600084156112f75750858301515b600019600386901b1c1916600185901b1785556112a5565b600085815260208120601f198616915b8281101561133e5788860151825594840194600190910190840161131f565b508582101561135c5787850151600019600388901b60f8161c191681555b5050505050600190811b01905550565b600081546113798161118a565b80855260206001838116801561139657600181146113b0576113de565b60ff1985168884015283151560051b8801830195506113de565b866000528260002060005b858110156113d65781548a82018601529083019084016113bb565b890184019650505b505050505092915050565b6060815260006113fc606083018661136c565b828103602084015261140e818661136c565b90508281036040840152611422818561136c565b9695505050505050565b634e487b7160e01b600052602160045260246000fd5b634e487b7160e01b600052603260045260246000fd5b6001600160401b038616815260a06020820152600061147a60a083018761107a565b61ffff9590951660408301525063ffffffff92909216606083015260809091015292915050565b6000602082840312156114b357600080fd5b5051919050565b634e487b7160e01b600052601160045260246000fd5b80820180821115610be257610be26114ba565b81810381811115610be257610be26114ba565b60008261151357634e487b7160e01b600052601260045260246000fd5b500690565b8082028115828204841417610be257610be26114ba565b600181815b8085111561156a578160001904821115611550576115506114ba565b8085161561155d57918102915b93841c9390800290611534565b509250929050565b60008261158157506001610be2565b8161158e57506000610be2565b81600181146115a457600281146115ae576115ca565b6001915050610be2565b60ff8411156115bf576115bf6114ba565b50506001821b610be2565b5060208310610133831016604e8410600b84101617156115ed575081810a610be2565b6115f7838361152f565b806000190482111561160b5761160b6114ba565b029392505050565b6000610d28838361157256fea264697066735822122071ec86079a5b7bf05074fc0b72099ce92d1c6e1e16436380e5b3dc35ad3ddff264736f6c63430008190033636f6e7374206970667348617368203d20617267735b305d3b636f6e737420617069526573706f6e7365203d2061776169742046756e6374696f6e732e6d616b654874747052657175657374287b75726c3a206068747470733a2f2f766564612d616e616c79746963732d6170692d676c35626269333263712d74732e612e72756e2e6170702f6170692f6964656e746966792f247b69706673486173687d607d293b69662028617069526573706f6e73652e6572726f7229207b7468726f77204572726f72282752657175657374206661696c656427293b7d636f6e7374207b2064617461207d203d20617069526573706f6e73653b72657475726e2046756e6374696f6e732e656e636f6465537472696e67284a534f4e2e737472696e67696679286461746129293b","linkReferences":{}},"methodIdentifiers":{"acceptOwnership()":"79ba5097","character()":"4d2e03a0","donID()":"6e74336b","gasLimit()":"f68016b7","handleOracleFulfillment(bytes32,bytes,bytes)":"0ca76175","owner()":"8da5cb5b","router()":"f887ea40","s_lastError()":"4b0795a8","s_lastRequestId()":"b1e21749","s_lastResponse()":"3944ea3a","sendRequest(uint64,string[])":"48a7d26d","transferOwnership(address)":"f2fde38b"},"id":11}