{"abi":[{"type":"function","name":"fulfill","inputs":[{"name":"response","type":"bytes","internalType":"bytes"},{"name":"err","type":"bytes","internalType":"bytes"},{"name":"juelsPerGas","type":"uint96","internalType":"uint96"},{"name":"costWithoutFulfillment","type":"uint96","internalType":"uint96"},{"name":"transmitter","type":"address","internalType":"address"},{"name":"commitment","type":"tuple","internalType":"struct FunctionsResponse.Commitment","components":[{"name":"requestId","type":"bytes32","internalType":"bytes32"},{"name":"coordinator","type":"address","internalType":"address"},{"name":"estimatedTotalCostJuels","type":"uint96","internalType":"uint96"},{"name":"client","type":"address","internalType":"address"},{"name":"subscriptionId","type":"uint64","internalType":"uint64"},{"name":"callbackGasLimit","type":"uint32","internalType":"uint32"},{"name":"adminFee","type":"uint72","internalType":"uint72"},{"name":"donFee","type":"uint72","internalType":"uint72"},{"name":"gasOverheadBeforeCallback","type":"uint40","internalType":"uint40"},{"name":"gasOverheadAfterCallback","type":"uint40","internalType":"uint40"},{"name":"timeoutTimestamp","type":"uint32","internalType":"uint32"}]}],"outputs":[{"name":"","type":"uint8","internalType":"enum FunctionsResponse.FulfillResult"},{"name":"","type":"uint96","internalType":"uint96"}],"stateMutability":"nonpayable"},{"type":"function","name":"getAdminFee","inputs":[],"outputs":[{"name":"adminFee","type":"uint72","internalType":"uint72"}],"stateMutability":"view"},{"type":"function","name":"getAllowListId","inputs":[],"outputs":[{"name":"","type":"bytes32","internalType":"bytes32"}],"stateMutability":"view"},{"type":"function","name":"getContractById","inputs":[{"name":"id","type":"bytes32","internalType":"bytes32"}],"outputs":[{"name":"","type":"address","internalType":"address"}],"stateMutability":"view"},{"type":"function","name":"getProposedContractById","inputs":[{"name":"id","type":"bytes32","internalType":"bytes32"}],"outputs":[{"name":"","type":"address","internalType":"address"}],"stateMutability":"view"},{"type":"function","name":"getProposedContractSet","inputs":[],"outputs":[{"name":"","type":"bytes32[]","internalType":"bytes32[]"},{"name":"","type":"address[]","internalType":"address[]"}],"stateMutability":"view"},{"type":"function","name":"isValidCallbackGasLimit","inputs":[{"name":"subscriptionId","type":"uint64","internalType":"uint64"},{"name":"callbackGasLimit","type":"uint32","internalType":"uint32"}],"outputs":[],"stateMutability":"view"},{"type":"function","name":"pause","inputs":[],"outputs":[],"stateMutability":"nonpayable"},{"type":"function","name":"proposeContractsUpdate","inputs":[{"name":"proposalSetIds","type":"bytes32[]","internalType":"bytes32[]"},{"name":"proposalSetAddresses","type":"address[]","internalType":"address[]"}],"outputs":[],"stateMutability":"nonpayable"},{"type":"function","name":"sendRequest","inputs":[{"name":"subscriptionId","type":"uint64","internalType":"uint64"},{"name":"data","type":"bytes","internalType":"bytes"},{"name":"dataVersion","type":"uint16","internalType":"uint16"},{"name":"callbackGasLimit","type":"uint32","internalType":"uint32"},{"name":"donId","type":"bytes32","internalType":"bytes32"}],"outputs":[{"name":"","type":"bytes32","internalType":"bytes32"}],"stateMutability":"nonpayable"},{"type":"function","name":"sendRequestToProposed","inputs":[{"name":"subscriptionId","type":"uint64","internalType":"uint64"},{"name":"data","type":"bytes","internalType":"bytes"},{"name":"dataVersion","type":"uint16","internalType":"uint16"},{"name":"callbackGasLimit","type":"uint32","internalType":"uint32"},{"name":"donId","type":"bytes32","internalType":"bytes32"}],"outputs":[{"name":"","type":"bytes32","internalType":"bytes32"}],"stateMutability":"nonpayable"},{"type":"function","name":"setAllowListId","inputs":[{"name":"allowListId","type":"bytes32","internalType":"bytes32"}],"outputs":[],"stateMutability":"nonpayable"},{"type":"function","name":"unpause","inputs":[],"outputs":[],"stateMutability":"nonpayable"},{"type":"function","name":"updateContracts","inputs":[],"outputs":[],"stateMutability":"nonpayable"}],"bytecode":{"object":"0x6080604052348015600f57600080fd5b506108228061001f6000396000f3fe608060405234801561001057600080fd5b50600436106100ea5760003560e01c80636a2215de1161008c578063aab396bd11610066578063aab396bd146101c2578063b734c0f414610101578063badc3eb6146101c9578063ea320e0b146101da57600080fd5b80636a2215de146101965780638456cb5914610101578063a9c9a9181461019657600080fd5b80633e871e4d116100c85780633e871e4d146101415780633f4ba83a1461010157806341db4ca31461014f578063461d27621461017757600080fd5b806310fc49c1146100ef5780632a905ccc146101035780633306052914610117575b600080fd5b6101016100fd36600461021c565b5050565b005b604051600081526020015b60405180910390f35b610133610125366004610391565b600080965096945050505050565b60405161010e929190610507565b6101016100fd3660046105e0565b61016961015d366004610699565b60009695505050505050565b60405190815260200161010e565b610169610185366004610699565b6231323360e81b9695505050505050565b6101aa6101a436600461074f565b50600090565b6040516001600160a01b03909116815260200161010e565b6000610169565b60608060405161010e929190610768565b6101016101e836600461074f565b50565b803567ffffffffffffffff8116811461020357600080fd5b919050565b803563ffffffff8116811461020357600080fd5b6000806040838503121561022f57600080fd5b610238836101eb565b915061024660208401610208565b90509250929050565b634e487b7160e01b600052604160045260246000fd5b604051610160810167ffffffffffffffff811182821017156102895761028961024f565b60405290565b604051601f8201601f1916810167ffffffffffffffff811182821017156102b8576102b861024f565b604052919050565b600082601f8301126102d157600080fd5b813567ffffffffffffffff8111156102eb576102eb61024f565b6102fe601f8201601f191660200161028f565b81815284602083860101111561031357600080fd5b816020850160208301376000918101602001919091529392505050565b80356bffffffffffffffffffffffff8116811461020357600080fd5b80356001600160a01b038116811461020357600080fd5b803568ffffffffffffffffff8116811461020357600080fd5b803564ffffffffff8116811461020357600080fd5b6000806000806000808688036102008112156103ac57600080fd5b873567ffffffffffffffff808211156103c457600080fd5b6103d08b838c016102c0565b985060208a01359150808211156103e657600080fd5b506103f38a828b016102c0565b96505061040260408901610330565b945061041060608901610330565b935061041e6080890161034c565b925061016080609f198301121561043457600080fd5b61043c610265565b915060a0890135825261045160c08a0161034c565b602083015261046260e08a01610330565b6040830152610100610475818b0161034c565b6060840152610120610488818c016101eb565b608085015261014061049b818d01610208565b60a08601526104ab848d01610363565b60c08601526104bd6101808d01610363565b60e08601526104cf6101a08d0161037c565b838601526104e06101c08d0161037c565b828601526104f16101e08d01610208565b8186015250505050809150509295509295509295565b604081016007841061052957634e487b7160e01b600052602160045260246000fd5b9281526bffffffffffffffffffffffff9190911660209091015290565b600067ffffffffffffffff8211156105605761056061024f565b5060051b60200190565b600082601f83011261057b57600080fd5b8135602061059061058b83610546565b61028f565b8083825260208201915060208460051b8701019350868411156105b257600080fd5b602086015b848110156105d5576105c88161034c565b83529183019183016105b7565b509695505050505050565b600080604083850312156105f357600080fd5b823567ffffffffffffffff8082111561060b57600080fd5b818501915085601f83011261061f57600080fd5b8135602061062f61058b83610546565b82815260059290921b8401810191818101908984111561064e57600080fd5b948201945b8386101561066c57853582529482019490820190610653565b9650508601359250508082111561068257600080fd5b5061068f8582860161056a565b9150509250929050565b60008060008060008060a087890312156106b257600080fd5b6106bb876101eb565b9550602087013567ffffffffffffffff808211156106d857600080fd5b818901915089601f8301126106ec57600080fd5b8135818111156106fb57600080fd5b8a602082850101111561070d57600080fd5b602083019750809650505050604087013561ffff8116811461072e57600080fd5b925061073c60608801610208565b9150608087013590509295509295509295565b60006020828403121561076157600080fd5b5035919050565b604080825283519082018190526000906020906060840190828701845b828110156107a157815184529284019290840190600101610785565b5050508381038285015284518082528583019183019060005b818110156107df5783516001600160a01b0316835292840192918401916001016107ba565b509097965050505050505056fea2646970667358221220fc87797b3bd473349a3b8138a240efdff25bb4d0e38be0255af2313866a7476e64736f6c63430008190033","linkReferences":{}},"methodIdentifiers":{"fulfill(bytes,bytes,uint96,uint96,address,(bytes32,address,uint96,address,uint64,uint32,uint72,uint72,uint40,uint40,uint32))":"33060529","getAdminFee()":"2a905ccc","getAllowListId()":"aab396bd","getContractById(bytes32)":"a9c9a918","getProposedContractById(bytes32)":"6a2215de","getProposedContractSet()":"badc3eb6","isValidCallbackGasLimit(uint64,uint32)":"10fc49c1","pause()":"8456cb59","proposeContractsUpdate(bytes32[],address[])":"3e871e4d","sendRequest(uint64,bytes,uint16,uint32,bytes32)":"461d2762","sendRequestToProposed(uint64,bytes,uint16,uint32,bytes32)":"41db4ca3","setAllowListId(bytes32)":"ea320e0b","unpause()":"3f4ba83a","updateContracts()":"b734c0f4"},"id":36}