{"abi":[{"type":"function","name":"REQUEST_DATA_VERSION","inputs":[],"outputs":[{"name":"","type":"uint16","internalType":"uint16"}],"stateMutability":"view"},{"type":"error","name":"EmptyArgs","inputs":[]},{"type":"error","name":"EmptySecrets","inputs":[]},{"type":"error","name":"EmptySource","inputs":[]},{"type":"error","name":"NoInlineSecrets","inputs":[]}],"bytecode":{"object":"0x608c6037600b82828239805160001a607314602a57634e487b7160e01b600052600060045260246000fd5b30600052607381538281f3fe730000000000000000000000000000000000000000301460806040526004361060335760003560e01c80635d641dfc146038575b600080fd5b603f600181565b60405161ffff909116815260200160405180910390f3fea26469706673582212209918f876797a75ef46c712ea9bc612e4ecaf1dd23886b4e54c0b6761dae2428e64736f6c63430008190033","linkReferences":{}},"methodIdentifiers":{"REQUEST_DATA_VERSION()":"5d641dfc"},"id":27}